{
  "_format": "hh-sol-artifact-1",
  "contractName": "Lock",
  "sourceName": "contracts/Lock.sol",
  "abi": [
    {
      "inputs": [],
      "stateMutability": "nonpayable",
      "type": "constructor"
    },
    {
      "anonymous": false,
      "inputs": [
        {
          "indexed": true,
          "internalType": "address",
          "name": "owner",
          "type": "address"
        },
        {
          "indexed": false,
          "internalType": "uint256",
          "name": "depositAmount",
          "type": "uint256"
        },
        {
          "indexed": false,
          "internalType": "uint256",
          "name": "newUnlock",
          "type": "uint256"
        }
      ],
      "name": "Deposit",
      "type": "event"
    },
    {
      "anonymous": false,
      "inputs": [
        {
          "indexed": true,
          "internalType": "address",
          "name": "to",
          "type": "address"
        },
        {
          "indexed": true,
          "internalType": "address",
          "name": "operator",
          "type": "address"
        },
        {
          "indexed": false,
          "internalType": "uint256",
          "name": "amount",
          "type": "uint256"
        },
        {
          "indexed": false,
          "internalType": "uint256",
          "name": "when",
          "type": "uint256"
        }
      ],
      "name": "Withdrawal",
      "type": "event"
    },
    {
      "anonymous": false,
      "inputs": [
        {
          "indexed": true,
          "internalType": "address",
          "name": "owner",
          "type": "address"
        },
        {
          "indexed": true,
          "internalType": "address",
          "name": "operator",
          "type": "address"
        },
        {
          "indexed": false,
          "internalType": "uint256",
          "name": "amount",
          "type": "uint256"
        },
        {
          "indexed": false,
          "internalType": "uint256",
          "name": "when",
          "type": "uint256"
        }
      ],
      "name": "WithdrawalPercentage",
      "type": "event"
    },
    {
      "inputs": [
        {
          "internalType": "address",
          "name": "user",
          "type": "address"
        }
      ],
      "name": "approve",
      "outputs": [],
      "stateMutability": "nonpayable",
      "type": "function"
    },
    {
      "inputs": [],
      "name": "contractInfo",
      "outputs": [
        {
          "internalType": "uint256",
          "name": "totalDeposits",
          "type": "uint256"
        },
        {
          "internalType": "uint256",
          "name": "totalDepositsAmount",
          "type": "uint256"
        },
        {
          "internalType": "uint256",
          "name": "totalUsers",
          "type": "uint256"
        },
        {
          "internalType": "uint256",
          "name": "totalWithdraws",
          "type": "uint256"
        },
        {
          "internalType": "uint256",
          "name": "totalWithdrawsAmount",
          "type": "uint256"
        }
      ],
      "stateMutability": "view",
      "type": "function"
    },
    {
      "inputs": [
        {
          "internalType": "address",
          "name": "owner",
          "type": "address"
        }
      ],
      "name": "deposit",
      "outputs": [],
      "stateMutability": "payable",
      "type": "function"
    },
    {
      "inputs": [
        {
          "internalType": "address",
          "name": "user",
          "type": "address"
        }
      ],
      "name": "getBalance",
      "outputs": [
        {
          "internalType": "uint256",
          "name": "",
          "type": "uint256"
        }
      ],
      "stateMutability": "view",
      "type": "function"
    },
    {
      "inputs": [],
      "name": "getContractBalance",
      "outputs": [
        {
          "internalType": "uint256",
          "name": "",
          "type": "uint256"
        }
      ],
      "stateMutability": "view",
      "type": "function"
    },
    {
      "inputs": [
        {
          "internalType": "address",
          "name": "user",
          "type": "address"
        }
      ],
      "name": "getOpperators",
      "outputs": [
        {
          "internalType": "address",
          "name": "",
          "type": "address"
        }
      ],
      "stateMutability": "view",
      "type": "function"
    },
    {
      "inputs": [
        {
          "internalType": "address",
          "name": "user",
          "type": "address"
        }
      ],
      "name": "getTimestamp",
      "outputs": [
        {
          "internalType": "uint256",
          "name": "",
          "type": "uint256"
        }
      ],
      "stateMutability": "view",
      "type": "function"
    },
    {
      "inputs": [],
      "name": "getTotalDepositAmount",
      "outputs": [
        {
          "internalType": "uint256",
          "name": "",
          "type": "uint256"
        }
      ],
      "stateMutability": "view",
      "type": "function"
    },
    {
      "inputs": [],
      "name": "getTotalUsers",
      "outputs": [
        {
          "internalType": "uint256",
          "name": "",
          "type": "uint256"
        }
      ],
      "stateMutability": "view",
      "type": "function"
    },
    {
      "inputs": [],
      "name": "getTotalWithdrawAmount",
      "outputs": [
        {
          "internalType": "uint256",
          "name": "",
          "type": "uint256"
        }
      ],
      "stateMutability": "view",
      "type": "function"
    },
    {
      "inputs": [],
      "name": "revokeApprove",
      "outputs": [],
      "stateMutability": "nonpayable",
      "type": "function"
    },
    {
      "inputs": [
        {
          "internalType": "address",
          "name": "owner",
          "type": "address"
        }
      ],
      "name": "withdraw",
      "outputs": [],
      "stateMutability": "nonpayable",
      "type": "function"
    },
    {
      "inputs": [
        {
          "internalType": "address",
          "name": "owner",
          "type": "address"
        },
        {
          "internalType": "uint256",
          "name": "percentage",
          "type": "uint256"
        }
      ],
      "name": "withdrawPercentage",
      "outputs": [],
      "stateMutability": "nonpayable",
      "type": "function"
    }
  ],
  "bytecode": "0x608060405234801561001057600080fd5b506000806000018190555060008060020181905550600080600301819055506000806001018190555060008060040181905550611528806100526000396000f3fe6080604052600436106100c25760003560e01c80638ed8649b1161007f578063ce43e54911610059578063ce43e54914610248578063daea85c514610285578063f340fa01146102ae578063f8b2cb4f146102ca576100c2565b80638ed8649b146101db5780639be572f6146101f2578063c77e76141461021d576100c2565b806315c43aaf146100c75780633c9b97fc146100f657806351cff8d91461012157806369cfb9c41461014a5780636f9fb98a146101735780638bf57f4e1461019e575b600080fd5b3480156100d357600080fd5b506100dc610307565b6040516100ed959493929190610f61565b60405180910390f35b34801561010257600080fd5b5061010b61032b565b6040516101189190610fb4565b60405180910390f35b34801561012d57600080fd5b5061014860048036038101906101439190611032565b610337565b005b34801561015657600080fd5b50610171600480360381019061016c919061108b565b6105f5565b005b34801561017f57600080fd5b506101886109a8565b6040516101959190610fb4565b60405180910390f35b3480156101aa57600080fd5b506101c560048036038101906101c09190611032565b6109b0565b6040516101d29190610fb4565b60405180910390f35b3480156101e757600080fd5b506101f06109f9565b005b3480156101fe57600080fd5b50610207610a7a565b6040516102149190610fb4565b60405180910390f35b34801561022957600080fd5b50610232610a86565b60405161023f9190610fb4565b60405180910390f35b34801561025457600080fd5b5061026f600480360381019061026a9190611032565b610a92565b60405161027c91906110da565b60405180910390f35b34801561029157600080fd5b506102ac60048036038101906102a79190611032565b610afb565b005b6102c860048036038101906102c39190611032565b610b7c565b005b3480156102d657600080fd5b506102f160048036038101906102ec9190611032565b610e1f565b6040516102fe9190610fb4565b60405180910390f35b60008060000154908060010154908060020154908060030154908060040154905085565b60008060010154905090565b808073ffffffffffffffffffffffffffffffffffffffff163373ffffffffffffffffffffffffffffffffffffffff1614806103fc5750600760008273ffffffffffffffffffffffffffffffffffffffff1673ffffffffffffffffffffffffffffffffffffffff16815260200190815260200160002060009054906101000a900473ffffffffffffffffffffffffffffffffffffffff1673ffffffffffffffffffffffffffffffffffffffff163373ffffffffffffffffffffffffffffffffffffffff16145b61043b576040517f08c379a000000000000000000000000000000000000000000000000000000000815260040161043290611178565b60405180910390fd5b610443610e68565b610482576040517f08c379a0000000000000000000000000000000000000000000000000000000008152600401610479906111e4565b60405180910390fd5b6000600560008473ffffffffffffffffffffffffffffffffffffffff1673ffffffffffffffffffffffffffffffffffffffff1681526020019081526020016000205490506000600560008573ffffffffffffffffffffffffffffffffffffffff1673ffffffffffffffffffffffffffffffffffffffff168152602001908152602001600020819055506000600301600081548092919061052190611233565b9190505550806000600401600082825461053b919061127b565b925050819055503373ffffffffffffffffffffffffffffffffffffffff168373ffffffffffffffffffffffffffffffffffffffff167fc2b4a290c20fb28939d29f102514fbffd2b73c059ffba8b78250c94161d5fcc683426040516105a19291906112af565b60405180910390a38273ffffffffffffffffffffffffffffffffffffffff166108fc829081150290604051600060405180830381858888f193505050501580156105ef573d6000803e3d6000fd5b50505050565b818073ffffffffffffffffffffffffffffffffffffffff163373ffffffffffffffffffffffffffffffffffffffff1614806106ba5750600760008273ffffffffffffffffffffffffffffffffffffffff1673ffffffffffffffffffffffffffffffffffffffff16815260200190815260200160002060009054906101000a900473ffffffffffffffffffffffffffffffffffffffff1673ffffffffffffffffffffffffffffffffffffffff163373ffffffffffffffffffffffffffffffffffffffff16145b6106f9576040517f08c379a00000000000000000000000000000000000000000000000000000000081526004016106f090611178565b60405180910390fd5b606482111561073d576040517f08c379a000000000000000000000000000000000000000000000000000000000815260040161073490611324565b60405180910390fd5b610745610e68565b610784576040517f08c379a000000000000000000000000000000000000000000000000000000000815260040161077b90611390565b60405180910390fd5b6000600560008573ffffffffffffffffffffffffffffffffffffffff1673ffffffffffffffffffffffffffffffffffffffff1681526020019081526020016000205411610806576040517f08c379a00000000000000000000000000000000000000000000000000000000081526004016107fd906113fc565b60405180910390fd5b6000600560008573ffffffffffffffffffffffffffffffffffffffff1673ffffffffffffffffffffffffffffffffffffffff16815260200190815260200160002054905060006064848361085a919061141c565b610864919061148d565b905080600560008773ffffffffffffffffffffffffffffffffffffffff1673ffffffffffffffffffffffffffffffffffffffff16815260200190815260200160002060008282546108b591906114be565b92505081905550600060030160008154809291906108d290611233565b919050555080600060040160008282546108ec919061127b565b925050819055503373ffffffffffffffffffffffffffffffffffffffff168573ffffffffffffffffffffffffffffffffffffffff167fc301b07633a80cc552f2641899c7494bdb780630eb7e57d589e31517e5f5093e83426040516109529291906112af565b60405180910390a38473ffffffffffffffffffffffffffffffffffffffff166108fc829081150290604051600060405180830381858888f193505050501580156109a0573d6000803e3d6000fd5b505050505050565b600047905090565b6000600660008373ffffffffffffffffffffffffffffffffffffffff1673ffffffffffffffffffffffffffffffffffffffff168152602001908152602001600020549050919050565b6000600760003373ffffffffffffffffffffffffffffffffffffffff1673ffffffffffffffffffffffffffffffffffffffff16815260200190815260200160002060006101000a81548173ffffffffffffffffffffffffffffffffffffffff021916908373ffffffffffffffffffffffffffffffffffffffff160217905550565b60008060020154905090565b60008060040154905090565b6000600760008373ffffffffffffffffffffffffffffffffffffffff1673ffffffffffffffffffffffffffffffffffffffff16815260200190815260200160002060009054906101000a900473ffffffffffffffffffffffffffffffffffffffff169050919050565b80600760003373ffffffffffffffffffffffffffffffffffffffff1673ffffffffffffffffffffffffffffffffffffffff16815260200190815260200160002060006101000a81548173ffffffffffffffffffffffffffffffffffffffff021916908373ffffffffffffffffffffffffffffffffffffffff16021790555050565b808073ffffffffffffffffffffffffffffffffffffffff163373ffffffffffffffffffffffffffffffffffffffff161480610c415750600760008273ffffffffffffffffffffffffffffffffffffffff1673ffffffffffffffffffffffffffffffffffffffff16815260200190815260200160002060009054906101000a900473ffffffffffffffffffffffffffffffffffffffff1673ffffffffffffffffffffffffffffffffffffffff163373ffffffffffffffffffffffffffffffffffffffff16145b610c80576040517f08c379a0000000000000000000000000000000000000000000000000000000008152600401610c7790611178565b60405180910390fd5b610c8982610eb2565b15610caa5760006002016000815480929190610ca490611233565b91905055505b600034905080600560008573ffffffffffffffffffffffffffffffffffffffff1673ffffffffffffffffffffffffffffffffffffffff1681526020019081526020016000206000828254610cfe919061127b565b92505081905550603c42610d12919061127b565b600660008573ffffffffffffffffffffffffffffffffffffffff1673ffffffffffffffffffffffffffffffffffffffff16815260200190815260200160002081905550600080016000815480929190610d6a90611233565b91905055508060006001016000828254610d84919061127b565b925050819055508273ffffffffffffffffffffffffffffffffffffffff167f90890809c654f11d6e72a28fa60149770a0d11ec6c92319d6ceb2bb0a4ea1a1582600660003373ffffffffffffffffffffffffffffffffffffffff1673ffffffffffffffffffffffffffffffffffffffff16815260200190815260200160002054604051610e129291906112af565b60405180910390a2505050565b6000600560008373ffffffffffffffffffffffffffffffffffffffff1673ffffffffffffffffffffffffffffffffffffffff168152602001908152602001600020549050919050565b6000600660003373ffffffffffffffffffffffffffffffffffffffff1673ffffffffffffffffffffffffffffffffffffffff16815260200190815260200160002054421015905090565b600080600560008473ffffffffffffffffffffffffffffffffffffffff1673ffffffffffffffffffffffffffffffffffffffff16815260200190815260200160002054148015610f4157506000600660008473ffffffffffffffffffffffffffffffffffffffff1673ffffffffffffffffffffffffffffffffffffffff16815260200190815260200160002054145b9050919050565b6000819050919050565b610f5b81610f48565b82525050565b600060a082019050610f766000830188610f52565b610f836020830187610f52565b610f906040830186610f52565b610f9d6060830185610f52565b610faa6080830184610f52565b9695505050505050565b6000602082019050610fc96000830184610f52565b92915050565b600080fd5b600073ffffffffffffffffffffffffffffffffffffffff82169050919050565b6000610fff82610fd4565b9050919050565b61100f81610ff4565b811461101a57600080fd5b50565b60008135905061102c81611006565b92915050565b60006020828403121561104857611047610fcf565b5b60006110568482850161101d565b91505092915050565b61106881610f48565b811461107357600080fd5b50565b6000813590506110858161105f565b92915050565b600080604083850312156110a2576110a1610fcf565b5b60006110b08582860161101d565b92505060206110c185828601611076565b9150509250929050565b6110d481610ff4565b82525050565b60006020820190506110ef60008301846110cb565b92915050565b600082825260208201905092915050565b7f55736572206973206e6f7420746865206f776e6572206f72206973206170707260008201527f6f76656400000000000000000000000000000000000000000000000000000000602082015250565b60006111626024836110f5565b915061116d82611106565b604082019050919050565b6000602082019050818103600083015261119181611155565b9050919050565b7f596f752063616e74207769746864726177207965740000000000000000000000600082015250565b60006111ce6015836110f5565b91506111d982611198565b602082019050919050565b600060208201905081810360008301526111fd816111c1565b9050919050565b7f4e487b7100000000000000000000000000000000000000000000000000000000600052601160045260246000fd5b600061123e82610f48565b91507fffffffffffffffffffffffffffffffffffffffffffffffffffffffffffffffff82036112705761126f611204565b5b600182019050919050565b600061128682610f48565b915061129183610f48565b92508282019050808211156112a9576112a8611204565b5b92915050565b60006040820190506112c46000830185610f52565b6112d16020830184610f52565b9392505050565b7f70657263656e74616765206973206f7665722031303025000000000000000000600082015250565b600061130e6017836110f5565b9150611319826112d8565b602082019050919050565b6000602082019050818103600083015261133d81611301565b9050919050565b7f596f752063616e27742077697468647261772079657400000000000000000000600082015250565b600061137a6016836110f5565b915061138582611344565b602082019050919050565b600060208201905081810360008301526113a98161136d565b9050919050565b7f42616c616e636520697320656d70747900000000000000000000000000000000600082015250565b60006113e66010836110f5565b91506113f1826113b0565b602082019050919050565b60006020820190508181036000830152611415816113d9565b9050919050565b600061142782610f48565b915061143283610f48565b925082820261144081610f48565b9150828204841483151761145757611456611204565b5b5092915050565b7f4e487b7100000000000000000000000000000000000000000000000000000000600052601260045260246000fd5b600061149882610f48565b91506114a383610f48565b9250826114b3576114b261145e565b5b828204905092915050565b60006114c982610f48565b91506114d483610f48565b92508282039050818111156114ec576114eb611204565b5b9291505056fea26469706673582212207bd9321a470f2aad5d709b2f96e8fd99c274f1599a2b3648557ac100fd0ed22064736f6c63430008130033",
  "linkReferences": {},
  "deployedLinkReferences": {}
}